{
  "_format": "hh-sol-artifact-1",
  "contractName": "Auction",
  "sourceName": "contracts/Auction.sol",
  "abi": [
    {
      "inputs": [],
      "stateMutability": "nonpayable",
      "type": "constructor"
    },
    {
      "inputs": [],
      "name": "getInterested",
      "outputs": [
        {
          "internalType": "uint256",
          "name": "",
          "type": "uint256"
        }
      ],
      "stateMutability": "view",
      "type": "function"
    },
    {
      "inputs": [],
      "name": "interested",
      "outputs": [],
      "stateMutability": "nonpayable",
      "type": "function"
    },
    {
      "inputs": [],
      "name": "notInterested",
      "outputs": [],
      "stateMutability": "nonpayable",
      "type": "function"
    },
    {
      "inputs": [
        {
          "internalType": "address",
          "name": "",
          "type": "address"
        }
      ],
      "name": "peopleInterested",
      "outputs": [
        {
          "internalType": "bool",
          "name": "",
          "type": "bool"
        }
      ],
      "stateMutability": "view",
      "type": "function"
    }
  ],
  "bytecode": "0x608060405234801561001057600080fd5b506100596040518060400160405280601181526020017f41756374696f6e20436f6e74726163742100000000000000000000000000000081525061005e60201b6103ae1760201c565b6101e1565b6100fa81604051602401610072919061015f565b6040516020818303038152906040527f41304fac000000000000000000000000000000000000000000000000000000007bffffffffffffffffffffffffffffffffffffffffffffffffffffffff19166020820180517bffffffffffffffffffffffffffffffffffffffffffffffffffffffff83818316178352505050506100fd60201b60201c565b50565b60008151905060006a636f6e736f6c652e6c6f679050602083016000808483855afa5050505050565b600061013182610181565b61013b818561018c565b935061014b81856020860161019d565b610154816101d0565b840191505092915050565b600060208201905081810360008301526101798184610126565b905092915050565b600081519050919050565b600082825260208201905092915050565b60005b838110156101bb5780820151818401526020810190506101a0565b838111156101ca576000848401525b50505050565b6000601f19601f8301169050919050565b6108b2806101f06000396000f3fe608060405234801561001057600080fd5b506004361061004c5760003560e01c8063e48bac7014610051578063e855e8f414610081578063eb8487851461008b578063f4bddfeb146100a9575b600080fd5b61006b600480360381019061006691906105bd565b6100b3565b604051610078919061064c565b60405180910390f35b6100896100d3565b005b61009361021c565b6040516100a091906106e9565b60405180910390f35b6100b1610267565b005b60016020528060005260406000206000915054906101000a900460ff1681565b600160003373ffffffffffffffffffffffffffffffffffffffff1673ffffffffffffffffffffffffffffffffffffffff16815260200190815260200160002060009054906101000a900460ff16156101da5760016000808282546101379190610776565b925050819055506000600160003373ffffffffffffffffffffffffffffffffffffffff1673ffffffffffffffffffffffffffffffffffffffff16815260200190815260200160002060006101000a81548160ff0219169083151502179055506101d56040518060400160405280601a81526020017f2573206973206e6f206c6f6e67657220696e746572657374656400000000000081525033610447565b61021a565b6102196040518060400160405280601c81526020017f257320697320616c7265616479206e6f7420696e74657265737465640000000081525033610447565b5b565b600061025f6040518060400160405280601e81526020017f5468657265206172652025642070656f706c6520696e746572657374656400008152506000546104e3565b600054905090565b600160003373ffffffffffffffffffffffffffffffffffffffff1673ffffffffffffffffffffffffffffffffffffffff16815260200190815260200160002060009054906101000a900460ff1661036c5760016000808282546102ca9190610720565b9250508190555060018060003373ffffffffffffffffffffffffffffffffffffffff1673ffffffffffffffffffffffffffffffffffffffff16815260200190815260200160002060006101000a81548160ff0219169083151502179055506103676040518060400160405280601481526020017f2573206973206e6f7720696e746572657374656400000000000000000000000081525033610447565b6103ac565b6103ab6040518060400160405280601881526020017f257320697320616c726561647920696e7465726573746564000000000000000081525033610447565b5b565b610444816040516024016103c29190610667565b6040516020818303038152906040527f41304fac000000000000000000000000000000000000000000000000000000007bffffffffffffffffffffffffffffffffffffffffffffffffffffffff19166020820180517bffffffffffffffffffffffffffffffffffffffffffffffffffffffff838183161783525050505061057f565b50565b6104df828260405160240161045d929190610689565b6040516020818303038152906040527f319af333000000000000000000000000000000000000000000000000000000007bffffffffffffffffffffffffffffffffffffffffffffffffffffffff19166020820180517bffffffffffffffffffffffffffffffffffffffffffffffffffffffff838183161783525050505061057f565b5050565b61057b82826040516024016104f99291906106b9565b6040516020818303038152906040527f9710a9d0000000000000000000000000000000000000000000000000000000007bffffffffffffffffffffffffffffffffffffffffffffffffffffffff19166020820180517bffffffffffffffffffffffffffffffffffffffffffffffffffffffff838183161783525050505061057f565b5050565b60008151905060006a636f6e736f6c652e6c6f679050602083016000808483855afa5050505050565b6000813590506105b781610865565b92915050565b6000602082840312156105cf57600080fd5b60006105dd848285016105a8565b91505092915050565b6105ef816107aa565b82525050565b6105fe816107bc565b82525050565b600061060f82610704565b610619818561070f565b93506106298185602086016107f2565b61063281610854565b840191505092915050565b610646816107e8565b82525050565b600060208201905061066160008301846105f5565b92915050565b600060208201905081810360008301526106818184610604565b905092915050565b600060408201905081810360008301526106a38185610604565b90506106b260208301846105e6565b9392505050565b600060408201905081810360008301526106d38185610604565b90506106e2602083018461063d565b9392505050565b60006020820190506106fe600083018461063d565b92915050565b600081519050919050565b600082825260208201905092915050565b600061072b826107e8565b9150610736836107e8565b9250827fffffffffffffffffffffffffffffffffffffffffffffffffffffffffffffffff0382111561076b5761076a610825565b5b828201905092915050565b6000610781826107e8565b915061078c836107e8565b92508282101561079f5761079e610825565b5b828203905092915050565b60006107b5826107c8565b9050919050565b60008115159050919050565b600073ffffffffffffffffffffffffffffffffffffffff82169050919050565b6000819050919050565b60005b838110156108105780820151818401526020810190506107f5565b8381111561081f576000848401525b50505050565b7f4e487b7100000000000000000000000000000000000000000000000000000000600052601160045260246000fd5b6000601f19601f8301169050919050565b61086e816107aa565b811461087957600080fd5b5056fea2646970667358221220ee1ede583fe1ad54925042471dc6f6165dbc90f428e4e9bf66e32c697732a79a64736f6c63430008040033",
  "linkReferences": {},
  "deployedLinkReferences": {}
}