{
  "_format": "hh-sol-artifact-1",
  "contractName": "Auction",
  "sourceName": "contracts/Auction.sol",
  "abi": [
    {
      "inputs": [],
      "stateMutability": "payable",
      "type": "constructor"
    },
    {
      "anonymous": false,
      "inputs": [
        {
          "indexed": true,
          "internalType": "address",
          "name": "from",
          "type": "address"
        },
        {
          "indexed": false,
          "internalType": "uint256",
          "name": "timestamp",
          "type": "uint256"
        },
        {
          "indexed": false,
          "internalType": "string",
          "name": "message",
          "type": "string"
        }
      ],
      "name": "NewInterested",
      "type": "event"
    },
    {
      "inputs": [],
      "name": "claim",
      "outputs": [],
      "stateMutability": "nonpayable",
      "type": "function"
    },
    {
      "inputs": [],
      "name": "getAllMessages",
      "outputs": [
        {
          "components": [
            {
              "internalType": "address",
              "name": "sender",
              "type": "address"
            },
            {
              "internalType": "string",
              "name": "message",
              "type": "string"
            },
            {
              "internalType": "uint256",
              "name": "timestamp",
              "type": "uint256"
            }
          ],
          "internalType": "struct Auction.Message[]",
          "name": "",
          "type": "tuple[]"
        }
      ],
      "stateMutability": "view",
      "type": "function"
    },
    {
      "inputs": [],
      "name": "getInterested",
      "outputs": [
        {
          "internalType": "uint256",
          "name": "",
          "type": "uint256"
        }
      ],
      "stateMutability": "view",
      "type": "function"
    },
    {
      "inputs": [],
      "name": "interested",
      "outputs": [],
      "stateMutability": "nonpayable",
      "type": "function"
    },
    {
      "inputs": [
        {
          "internalType": "address",
          "name": "",
          "type": "address"
        }
      ],
      "name": "lastClaimedAt",
      "outputs": [
        {
          "internalType": "uint256",
          "name": "",
          "type": "uint256"
        }
      ],
      "stateMutability": "view",
      "type": "function"
    },
    {
      "inputs": [
        {
          "internalType": "string",
          "name": "_message",
          "type": "string"
        }
      ],
      "name": "message",
      "outputs": [],
      "stateMutability": "nonpayable",
      "type": "function"
    },
    {
      "inputs": [],
      "name": "notInterested",
      "outputs": [],
      "stateMutability": "nonpayable",
      "type": "function"
    },
    {
      "inputs": [
        {
          "internalType": "address",
          "name": "",
          "type": "address"
        }
      ],
      "name": "peopleInterested",
      "outputs": [
        {
          "internalType": "bool",
          "name": "",
          "type": "bool"
        }
      ],
      "stateMutability": "view",
      "type": "function"
    }
  ],
  "bytecode": "0x60806040526200004f6040518060400160405280601181526020017f41756374696f6e20436f6e7472616374210000000000000000000000000000008152506200005560201b6200092d1760201c565b620001e9565b620000f5816040516024016200006c919062000162565b6040516020818303038152906040527f41304fac000000000000000000000000000000000000000000000000000000007bffffffffffffffffffffffffffffffffffffffffffffffffffffffff19166020820180517bffffffffffffffffffffffffffffffffffffffffffffffffffffffff8381831617835250505050620000f860201b60201c565b50565b60008151905060006a636f6e736f6c652e6c6f679050602083016000808483855afa5050505050565b60006200012e8262000186565b6200013a818562000191565b93506200014c818560208601620001a2565b6200015781620001d8565b840191505092915050565b600060208201905081810360008301526200017e818462000121565b905092915050565b600081519050919050565b600082825260208201905092915050565b60005b83811015620001c2578082015181840152602081019050620001a5565b83811115620001d2576000848401525b50505050565b6000601f19601f8301169050919050565b61156380620001f96000396000f3fe608060405234801561001057600080fd5b50600436106100885760003560e01c8063e48bac701161005b578063e48bac7014610101578063e855e8f414610131578063eb8487851461013b578063f4bddfeb1461015957610088565b806305c766d11461008d57806326a40c99146100a95780634e71d92d146100d957806353f5e380146100e3575b600080fd5b6100a760048036038101906100a29190610d0f565b610163565b005b6100c360048036038101906100be9190610ce6565b6102c2565b6040516100d091906110eb565b60405180910390f35b6100e16102da565b005b6100eb6104e0565b6040516100f89190610f87565b60405180910390f35b61011b60048036038101906101169190610ce6565b610631565b6040516101289190610fa9565b60405180910390f35b610139610651565b005b61014361079a565b60405161015091906110eb565b60405180910390f35b6101616107e5565b005b6101a36040518060400160405280600781526020017f257320736179730000000000000000000000000000000000000000000000000081525033836109c6565b600460405180606001604052803373ffffffffffffffffffffffffffffffffffffffff16815260200183815260200142815250908060018154018082558091505060019003906000526020600020906003020160009091909190915060008201518160000160006101000a81548173ffffffffffffffffffffffffffffffffffffffff021916908373ffffffffffffffffffffffffffffffffffffffff1602179055506020820151816001019080519060200190610262929190610bc6565b506040820151816002015550503373ffffffffffffffffffffffffffffffffffffffff167ff59a0490c64dc678d71fac4419d1912f50319248245f00362d2817a95abf421f42836040516102b7929190611106565b60405180910390a250565b60036020528060005260406000206000915090505481565b4261012c600360003373ffffffffffffffffffffffffffffffffffffffff1673ffffffffffffffffffffffffffffffffffffffff1681526020019081526020016000205461032891906111fd565b10610368576040517f08c379a000000000000000000000000000000000000000000000000000000000815260040161035f906110ab565b60405180910390fd5b60006064600154424461037b91906111fd565b61038591906111fd565b61038f9190611374565b90508060018190555060328110156104dd576000655af3107a400090506103eb6040518060400160405280600881526020017f596f7520776f6e3a00000000000000000000000000000000000000000000000081525082610a65565b4781111561042e576040517f08c379a00000000000000000000000000000000000000000000000000000000081526004016104259061108b565b60405180910390fd5b60003373ffffffffffffffffffffffffffffffffffffffff168260405161045490610f72565b60006040518083038185875af1925050503d8060008114610491576040519150601f19603f3d011682016040523d82523d6000602084013e610496565b606091505b50509050806104da576040517f08c379a00000000000000000000000000000000000000000000000000000000081526004016104d1906110cb565b60405180910390fd5b50505b50565b60606004805480602002602001604051908101604052809291908181526020016000905b8282101561062857838290600052602060002090600302016040518060600160405290816000820160009054906101000a900473ffffffffffffffffffffffffffffffffffffffff1673ffffffffffffffffffffffffffffffffffffffff1673ffffffffffffffffffffffffffffffffffffffff16815260200160018201805461058d90611311565b80601f01602080910402602001604051908101604052809291908181526020018280546105b990611311565b80156106065780601f106105db57610100808354040283529160200191610606565b820191906000526020600020905b8154815290600101906020018083116105e957829003601f168201915b5050505050815260200160028201548152505081526020019060010190610504565b50505050905090565b60026020528060005260406000206000915054906101000a900460ff1681565b600260003373ffffffffffffffffffffffffffffffffffffffff1673ffffffffffffffffffffffffffffffffffffffff16815260200190815260200160002060009054906101000a900460ff16156107585760016000808282546106b59190611253565b925050819055506000600260003373ffffffffffffffffffffffffffffffffffffffff1673ffffffffffffffffffffffffffffffffffffffff16815260200190815260200160002060006101000a81548160ff0219169083151502179055506107536040518060400160405280601a81526020017f2573206973206e6f206c6f6e67657220696e746572657374656400000000000081525033610b01565b610798565b6107976040518060400160405280601c81526020017f257320697320616c7265616479206e6f7420696e74657265737465640000000081525033610b01565b5b565b60006107dd6040518060400160405280601e81526020017f5468657265206172652025642070656f706c6520696e74657265737465640000815250600054610a65565b600054905090565b600260003373ffffffffffffffffffffffffffffffffffffffff1673ffffffffffffffffffffffffffffffffffffffff16815260200190815260200160002060009054906101000a900460ff166108eb57600160008082825461084891906111fd565b925050819055506001600260003373ffffffffffffffffffffffffffffffffffffffff1673ffffffffffffffffffffffffffffffffffffffff16815260200190815260200160002060006101000a81548160ff0219169083151502179055506108e66040518060400160405280601481526020017f2573206973206e6f7720696e746572657374656400000000000000000000000081525033610b01565b61092b565b61092a6040518060400160405280601881526020017f257320697320616c726561647920696e7465726573746564000000000000000081525033610b01565b5b565b6109c3816040516024016109419190610fc4565b6040516020818303038152906040527f41304fac000000000000000000000000000000000000000000000000000000007bffffffffffffffffffffffffffffffffffffffffffffffffffffffff19166020820180517bffffffffffffffffffffffffffffffffffffffffffffffffffffffff8381831617835250505050610b9d565b50565b610a608383836040516024016109de93929190611016565b6040516020818303038152906040527fe0e9ad4f000000000000000000000000000000000000000000000000000000007bffffffffffffffffffffffffffffffffffffffffffffffffffffffff19166020820180517bffffffffffffffffffffffffffffffffffffffffffffffffffffffff8381831617835250505050610b9d565b505050565b610afd8282604051602401610a7b92919061105b565b6040516020818303038152906040527f9710a9d0000000000000000000000000000000000000000000000000000000007bffffffffffffffffffffffffffffffffffffffffffffffffffffffff19166020820180517bffffffffffffffffffffffffffffffffffffffffffffffffffffffff8381831617835250505050610b9d565b5050565b610b998282604051602401610b17929190610fe6565b6040516020818303038152906040527f319af333000000000000000000000000000000000000000000000000000000007bffffffffffffffffffffffffffffffffffffffffffffffffffffffff19166020820180517bffffffffffffffffffffffffffffffffffffffffffffffffffffffff8381831617835250505050610b9d565b5050565b60008151905060006a636f6e736f6c652e6c6f679050602083016000808483855afa5050505050565b828054610bd290611311565b90600052602060002090601f016020900481019282610bf45760008555610c3b565b82601f10610c0d57805160ff1916838001178555610c3b565b82800160010185558215610c3b579182015b82811115610c3a578251825591602001919060010190610c1f565b5b509050610c489190610c4c565b5090565b5b80821115610c65576000816000905550600101610c4d565b5090565b6000610c7c610c778461115b565b611136565b905082815260208101848484011115610c9457600080fd5b610c9f8482856112cf565b509392505050565b600081359050610cb681611516565b92915050565b600082601f830112610ccd57600080fd5b8135610cdd848260208601610c69565b91505092915050565b600060208284031215610cf857600080fd5b6000610d0684828501610ca7565b91505092915050565b600060208284031215610d2157600080fd5b600082013567ffffffffffffffff811115610d3b57600080fd5b610d4784828501610cbc565b91505092915050565b6000610d5c8383610f04565b905092915050565b610d6d81611287565b82525050565b610d7c81611287565b82525050565b6000610d8d8261119c565b610d9781856111bf565b935083602082028501610da98561118c565b8060005b85811015610de55784840389528151610dc68582610d50565b9450610dd1836111b2565b925060208a01995050600181019050610dad565b50829750879550505050505092915050565b610e0081611299565b82525050565b6000610e11826111a7565b610e1b81856111db565b9350610e2b8185602086016112de565b610e3481611461565b840191505092915050565b6000610e4a826111a7565b610e5481856111ec565b9350610e648185602086016112de565b610e6d81611461565b840191505092915050565b6000610e85601b836111ec565b9150610e9082611472565b602082019050919050565b6000610ea86000836111d0565b9150610eb38261149b565b600082019050919050565b6000610ecb6027836111ec565b9150610ed68261149e565b604082019050919050565b6000610eee6020836111ec565b9150610ef9826114ed565b602082019050919050565b6000606083016000830151610f1c6000860182610d64565b5060208301518482036020860152610f348282610e06565b9150506040830151610f496040860182610f54565b508091505092915050565b610f5d816112c5565b82525050565b610f6c816112c5565b82525050565b6000610f7d82610e9b565b9150819050919050565b60006020820190508181036000830152610fa18184610d82565b905092915050565b6000602082019050610fbe6000830184610df7565b92915050565b60006020820190508181036000830152610fde8184610e3f565b905092915050565b600060408201905081810360008301526110008185610e3f565b905061100f6020830184610d73565b9392505050565b600060608201905081810360008301526110308186610e3f565b905061103f6020830185610d73565b81810360408301526110518184610e3f565b9050949350505050565b600060408201905081810360008301526110758185610e3f565b90506110846020830184610f63565b9392505050565b600060208201905081810360008301526110a481610e78565b9050919050565b600060208201905081810360008301526110c481610ebe565b9050919050565b600060208201905081810360008301526110e481610ee1565b9050919050565b60006020820190506111006000830184610f63565b92915050565b600060408201905061111b6000830185610f63565b818103602083015261112d8184610e3f565b90509392505050565b6000611140611151565b905061114c8282611343565b919050565b6000604051905090565b600067ffffffffffffffff82111561117657611175611432565b5b61117f82611461565b9050602081019050919050565b6000819050602082019050919050565b600081519050919050565b600081519050919050565b6000602082019050919050565b600082825260208201905092915050565b600081905092915050565b600082825260208201905092915050565b600082825260208201905092915050565b6000611208826112c5565b9150611213836112c5565b9250827fffffffffffffffffffffffffffffffffffffffffffffffffffffffffffffffff03821115611248576112476113a5565b5b828201905092915050565b600061125e826112c5565b9150611269836112c5565b92508282101561127c5761127b6113a5565b5b828203905092915050565b6000611292826112a5565b9050919050565b60008115159050919050565b600073ffffffffffffffffffffffffffffffffffffffff82169050919050565b6000819050919050565b82818337600083830152505050565b60005b838110156112fc5780820151818401526020810190506112e1565b8381111561130b576000848401525b50505050565b6000600282049050600182168061132957607f821691505b6020821081141561133d5761133c611403565b5b50919050565b61134c82611461565b810181811067ffffffffffffffff8211171561136b5761136a611432565b5b80604052505050565b600061137f826112c5565b915061138a836112c5565b92508261139a576113996113d4565b5b828206905092915050565b7f4e487b7100000000000000000000000000000000000000000000000000000000600052601160045260246000fd5b7f4e487b7100000000000000000000000000000000000000000000000000000000600052601260045260246000fd5b7f4e487b7100000000000000000000000000000000000000000000000000000000600052602260045260246000fd5b7f4e487b7100000000000000000000000000000000000000000000000000000000600052604160045260246000fd5b6000601f19601f8301169050919050565b7f496e73756666696369656e7420636f6e74726163742066756e64730000000000600082015250565b50565b7f596f752063616e206f6e6c7920636c61696d206f6e636520657665727920352060008201527f6d696e7574657300000000000000000000000000000000000000000000000000602082015250565b7f4661696c656420746f2077697468647261772066726f6d20636f6e7472616374600082015250565b61151f81611287565b811461152a57600080fd5b5056fea2646970667358221220a4d95b753ea9719c6cd61a8aeb407ca840201febf87e52c2fd0ba086db7c187664736f6c63430008040033",
  "linkReferences": {},
  "deployedLinkReferences": {}
}