{
  "_format": "hh-sol-artifact-1",
  "contractName": "Auction",
  "sourceName": "contracts/Auction.sol",
  "abi": [
    {
      "inputs": [],
      "stateMutability": "payable",
      "type": "constructor"
    },
    {
      "anonymous": false,
      "inputs": [
        {
          "indexed": true,
          "internalType": "address",
          "name": "from",
          "type": "address"
        },
        {
          "indexed": false,
          "internalType": "uint256",
          "name": "timestamp",
          "type": "uint256"
        },
        {
          "indexed": false,
          "internalType": "string",
          "name": "message",
          "type": "string"
        }
      ],
      "name": "NewInterested",
      "type": "event"
    },
    {
      "inputs": [],
      "name": "claim",
      "outputs": [],
      "stateMutability": "nonpayable",
      "type": "function"
    },
    {
      "inputs": [],
      "name": "getAllMessages",
      "outputs": [
        {
          "components": [
            {
              "internalType": "address",
              "name": "sender",
              "type": "address"
            },
            {
              "internalType": "string",
              "name": "message",
              "type": "string"
            },
            {
              "internalType": "uint256",
              "name": "timestamp",
              "type": "uint256"
            }
          ],
          "internalType": "struct Auction.Message[]",
          "name": "",
          "type": "tuple[]"
        }
      ],
      "stateMutability": "view",
      "type": "function"
    },
    {
      "inputs": [],
      "name": "getInterested",
      "outputs": [
        {
          "internalType": "uint256",
          "name": "",
          "type": "uint256"
        }
      ],
      "stateMutability": "view",
      "type": "function"
    },
    {
      "inputs": [],
      "name": "interested",
      "outputs": [],
      "stateMutability": "nonpayable",
      "type": "function"
    },
    {
      "inputs": [
        {
          "internalType": "string",
          "name": "_message",
          "type": "string"
        }
      ],
      "name": "message",
      "outputs": [],
      "stateMutability": "nonpayable",
      "type": "function"
    },
    {
      "inputs": [],
      "name": "notInterested",
      "outputs": [],
      "stateMutability": "nonpayable",
      "type": "function"
    },
    {
      "inputs": [
        {
          "internalType": "address",
          "name": "",
          "type": "address"
        }
      ],
      "name": "peopleInterested",
      "outputs": [
        {
          "internalType": "bool",
          "name": "",
          "type": "bool"
        }
      ],
      "stateMutability": "view",
      "type": "function"
    }
  ],
  "bytecode": "0x60806040526200004f6040518060400160405280601181526020017f41756374696f6e20436f6e7472616374210000000000000000000000000000008152506200005560201b620007d11760201c565b620001e9565b620000f5816040516024016200006c919062000162565b6040516020818303038152906040527f41304fac000000000000000000000000000000000000000000000000000000007bffffffffffffffffffffffffffffffffffffffffffffffffffffffff19166020820180517bffffffffffffffffffffffffffffffffffffffffffffffffffffffff8381831617835250505050620000f860201b60201c565b50565b60008151905060006a636f6e736f6c652e6c6f679050602083016000808483855afa5050505050565b60006200012e8262000186565b6200013a818562000191565b93506200014c818560208601620001a2565b6200015781620001d8565b840191505092915050565b600060208201905081810360008301526200017e818462000121565b905092915050565b600081519050919050565b600082825260208201905092915050565b60005b83811015620001c2578082015181840152602081019050620001a5565b83811115620001d2576000848401525b50505050565b6000601f19601f8301169050919050565b61131580620001f96000396000f3fe608060405234801561001057600080fd5b506004361061007d5760003560e01c8063e48bac701161005b578063e48bac70146100c6578063e855e8f4146100f6578063eb84878514610100578063f4bddfeb1461011e5761007d565b806305c766d1146100825780634e71d92d1461009e57806353f5e380146100a8575b600080fd5b61009c60048036038101906100979190610bb3565b610128565b005b6100a6610287565b005b6100b0610385565b6040516100bd9190610e08565b60405180910390f35b6100e060048036038101906100db9190610b8a565b6104d6565b6040516100ed9190610e2a565b60405180910390f35b6100fe6104f6565b005b61010861063f565b6040516101159190610f4c565b60405180910390f35b61012661068a565b005b6101686040518060400160405280600781526020017f2573207361797300000000000000000000000000000000000000000000000000815250338361086a565b600260405180606001604052803373ffffffffffffffffffffffffffffffffffffffff16815260200183815260200142815250908060018154018082558091505060019003906000526020600020906003020160009091909190915060008201518160000160006101000a81548173ffffffffffffffffffffffffffffffffffffffff021916908373ffffffffffffffffffffffffffffffffffffffff1602179055506020820151816001019080519060200190610227929190610a6a565b506040820151816002015550503373ffffffffffffffffffffffffffffffffffffffff167ff59a0490c64dc678d71fac4419d1912f50319248245f00362d2817a95abf421f428360405161027c929190610f67565b60405180910390a250565b6000655af3107a40009050478111156102d5576040517f08c379a00000000000000000000000000000000000000000000000000000000081526004016102cc90610f0c565b60405180910390fd5b60003373ffffffffffffffffffffffffffffffffffffffff16826040516102fb90610df3565b60006040518083038185875af1925050503d8060008114610338576040519150601f19603f3d011682016040523d82523d6000602084013e61033d565b606091505b5050905080610381576040517f08c379a000000000000000000000000000000000000000000000000000000000815260040161037890610f2c565b60405180910390fd5b5050565b60606002805480602002602001604051908101604052809291908181526020016000905b828210156104cd57838290600052602060002090600302016040518060600160405290816000820160009054906101000a900473ffffffffffffffffffffffffffffffffffffffff1673ffffffffffffffffffffffffffffffffffffffff1673ffffffffffffffffffffffffffffffffffffffff16815260200160018201805461043290611172565b80601f016020809104026020016040519081016040528092919081815260200182805461045e90611172565b80156104ab5780601f10610480576101008083540402835291602001916104ab565b820191906000526020600020905b81548152906001019060200180831161048e57829003601f168201915b50505050508152602001600282015481525050815260200190600101906103a9565b50505050905090565b60016020528060005260406000206000915054906101000a900460ff1681565b600160003373ffffffffffffffffffffffffffffffffffffffff1673ffffffffffffffffffffffffffffffffffffffff16815260200190815260200160002060009054906101000a900460ff16156105fd57600160008082825461055a91906110b4565b925050819055506000600160003373ffffffffffffffffffffffffffffffffffffffff1673ffffffffffffffffffffffffffffffffffffffff16815260200190815260200160002060006101000a81548160ff0219169083151502179055506105f86040518060400160405280601a81526020017f2573206973206e6f206c6f6e67657220696e746572657374656400000000000081525033610909565b61063d565b61063c6040518060400160405280601c81526020017f257320697320616c7265616479206e6f7420696e74657265737465640000000081525033610909565b5b565b60006106826040518060400160405280601e81526020017f5468657265206172652025642070656f706c6520696e746572657374656400008152506000546109a5565b600054905090565b600160003373ffffffffffffffffffffffffffffffffffffffff1673ffffffffffffffffffffffffffffffffffffffff16815260200190815260200160002060009054906101000a900460ff1661078f5760016000808282546106ed919061105e565b9250508190555060018060003373ffffffffffffffffffffffffffffffffffffffff1673ffffffffffffffffffffffffffffffffffffffff16815260200190815260200160002060006101000a81548160ff02191690831515021790555061078a6040518060400160405280601481526020017f2573206973206e6f7720696e746572657374656400000000000000000000000081525033610909565b6107cf565b6107ce6040518060400160405280601881526020017f257320697320616c726561647920696e7465726573746564000000000000000081525033610909565b5b565b610867816040516024016107e59190610e45565b6040516020818303038152906040527f41304fac000000000000000000000000000000000000000000000000000000007bffffffffffffffffffffffffffffffffffffffffffffffffffffffff19166020820180517bffffffffffffffffffffffffffffffffffffffffffffffffffffffff8381831617835250505050610a41565b50565b61090483838360405160240161088293929190610e97565b6040516020818303038152906040527fe0e9ad4f000000000000000000000000000000000000000000000000000000007bffffffffffffffffffffffffffffffffffffffffffffffffffffffff19166020820180517bffffffffffffffffffffffffffffffffffffffffffffffffffffffff8381831617835250505050610a41565b505050565b6109a1828260405160240161091f929190610e67565b6040516020818303038152906040527f319af333000000000000000000000000000000000000000000000000000000007bffffffffffffffffffffffffffffffffffffffffffffffffffffffff19166020820180517bffffffffffffffffffffffffffffffffffffffffffffffffffffffff8381831617835250505050610a41565b5050565b610a3d82826040516024016109bb929190610edc565b6040516020818303038152906040527f9710a9d0000000000000000000000000000000000000000000000000000000007bffffffffffffffffffffffffffffffffffffffffffffffffffffffff19166020820180517bffffffffffffffffffffffffffffffffffffffffffffffffffffffff8381831617835250505050610a41565b5050565b60008151905060006a636f6e736f6c652e6c6f679050602083016000808483855afa5050505050565b828054610a7690611172565b90600052602060002090601f016020900481019282610a985760008555610adf565b82601f10610ab157805160ff1916838001178555610adf565b82800160010185558215610adf579182015b82811115610ade578251825591602001919060010190610ac3565b5b509050610aec9190610af0565b5090565b5b80821115610b09576000816000905550600101610af1565b5090565b6000610b20610b1b84610fbc565b610f97565b905082815260208101848484011115610b3857600080fd5b610b43848285611130565b509392505050565b600081359050610b5a816112c8565b92915050565b600082601f830112610b7157600080fd5b8135610b81848260208601610b0d565b91505092915050565b600060208284031215610b9c57600080fd5b6000610baa84828501610b4b565b91505092915050565b600060208284031215610bc557600080fd5b600082013567ffffffffffffffff811115610bdf57600080fd5b610beb84828501610b60565b91505092915050565b6000610c008383610d85565b905092915050565b610c11816110e8565b82525050565b610c20816110e8565b82525050565b6000610c3182610ffd565b610c3b8185611020565b935083602082028501610c4d85610fed565b8060005b85811015610c895784840389528151610c6a8582610bf4565b9450610c7583611013565b925060208a01995050600181019050610c51565b50829750879550505050505092915050565b610ca4816110fa565b82525050565b6000610cb582611008565b610cbf818561103c565b9350610ccf81856020860161113f565b610cd881611262565b840191505092915050565b6000610cee82611008565b610cf8818561104d565b9350610d0881856020860161113f565b610d1181611262565b840191505092915050565b6000610d29601b8361104d565b9150610d3482611273565b602082019050919050565b6000610d4c600083611031565b9150610d578261129c565b600082019050919050565b6000610d6f60208361104d565b9150610d7a8261129f565b602082019050919050565b6000606083016000830151610d9d6000860182610c08565b5060208301518482036020860152610db58282610caa565b9150506040830151610dca6040860182610dd5565b508091505092915050565b610dde81611126565b82525050565b610ded81611126565b82525050565b6000610dfe82610d3f565b9150819050919050565b60006020820190508181036000830152610e228184610c26565b905092915050565b6000602082019050610e3f6000830184610c9b565b92915050565b60006020820190508181036000830152610e5f8184610ce3565b905092915050565b60006040820190508181036000830152610e818185610ce3565b9050610e906020830184610c17565b9392505050565b60006060820190508181036000830152610eb18186610ce3565b9050610ec06020830185610c17565b8181036040830152610ed28184610ce3565b9050949350505050565b60006040820190508181036000830152610ef68185610ce3565b9050610f056020830184610de4565b9392505050565b60006020820190508181036000830152610f2581610d1c565b9050919050565b60006020820190508181036000830152610f4581610d62565b9050919050565b6000602082019050610f616000830184610de4565b92915050565b6000604082019050610f7c6000830185610de4565b8181036020830152610f8e8184610ce3565b90509392505050565b6000610fa1610fb2565b9050610fad82826111a4565b919050565b6000604051905090565b600067ffffffffffffffff821115610fd757610fd6611233565b5b610fe082611262565b9050602081019050919050565b6000819050602082019050919050565b600081519050919050565b600081519050919050565b6000602082019050919050565b600082825260208201905092915050565b600081905092915050565b600082825260208201905092915050565b600082825260208201905092915050565b600061106982611126565b915061107483611126565b9250827fffffffffffffffffffffffffffffffffffffffffffffffffffffffffffffffff038211156110a9576110a86111d5565b5b828201905092915050565b60006110bf82611126565b91506110ca83611126565b9250828210156110dd576110dc6111d5565b5b828203905092915050565b60006110f382611106565b9050919050565b60008115159050919050565b600073ffffffffffffffffffffffffffffffffffffffff82169050919050565b6000819050919050565b82818337600083830152505050565b60005b8381101561115d578082015181840152602081019050611142565b8381111561116c576000848401525b50505050565b6000600282049050600182168061118a57607f821691505b6020821081141561119e5761119d611204565b5b50919050565b6111ad82611262565b810181811067ffffffffffffffff821117156111cc576111cb611233565b5b80604052505050565b7f4e487b7100000000000000000000000000000000000000000000000000000000600052601160045260246000fd5b7f4e487b7100000000000000000000000000000000000000000000000000000000600052602260045260246000fd5b7f4e487b7100000000000000000000000000000000000000000000000000000000600052604160045260246000fd5b6000601f19601f8301169050919050565b7f496e73756666696369656e7420636f6e74726163742066756e64730000000000600082015250565b50565b7f4661696c656420746f2077697468647261772066726f6d20636f6e7472616374600082015250565b6112d1816110e8565b81146112dc57600080fd5b5056fea26469706673582212201bc269c4416d0b98cad67f48127099bc93103a634e23ab95c470bf60b99d2e3964736f6c63430008040033",
  "linkReferences": {},
  "deployedLinkReferences": {}
}