{
  "_format": "hh-sol-artifact-1",
  "contractName": "Auction",
  "sourceName": "contracts/Auction.sol",
  "abi": [
    {
      "inputs": [],
      "stateMutability": "nonpayable",
      "type": "constructor"
    },
    {
      "anonymous": false,
      "inputs": [
        {
          "indexed": true,
          "internalType": "address",
          "name": "from",
          "type": "address"
        },
        {
          "indexed": false,
          "internalType": "uint256",
          "name": "timestamp",
          "type": "uint256"
        },
        {
          "indexed": false,
          "internalType": "string",
          "name": "message",
          "type": "string"
        }
      ],
      "name": "NewInterested",
      "type": "event"
    },
    {
      "inputs": [],
      "name": "getAllMessages",
      "outputs": [
        {
          "components": [
            {
              "internalType": "address",
              "name": "sender",
              "type": "address"
            },
            {
              "internalType": "string",
              "name": "message",
              "type": "string"
            },
            {
              "internalType": "uint256",
              "name": "timestamp",
              "type": "uint256"
            }
          ],
          "internalType": "struct Auction.Message[]",
          "name": "",
          "type": "tuple[]"
        }
      ],
      "stateMutability": "view",
      "type": "function"
    },
    {
      "inputs": [],
      "name": "getInterested",
      "outputs": [
        {
          "internalType": "uint256",
          "name": "",
          "type": "uint256"
        }
      ],
      "stateMutability": "view",
      "type": "function"
    },
    {
      "inputs": [],
      "name": "interested",
      "outputs": [],
      "stateMutability": "nonpayable",
      "type": "function"
    },
    {
      "inputs": [
        {
          "internalType": "string",
          "name": "_message",
          "type": "string"
        }
      ],
      "name": "message",
      "outputs": [],
      "stateMutability": "nonpayable",
      "type": "function"
    },
    {
      "inputs": [],
      "name": "notInterested",
      "outputs": [],
      "stateMutability": "nonpayable",
      "type": "function"
    },
    {
      "inputs": [
        {
          "internalType": "address",
          "name": "",
          "type": "address"
        }
      ],
      "name": "peopleInterested",
      "outputs": [
        {
          "internalType": "bool",
          "name": "",
          "type": "bool"
        }
      ],
      "stateMutability": "view",
      "type": "function"
    }
  ],
  "bytecode": "0x60806040523480156200001157600080fd5b506200005d6040518060400160405280601181526020017f41756374696f6e20436f6e7472616374210000000000000000000000000000008152506200006360201b620006ae1760201c565b620001f7565b62000103816040516024016200007a919062000170565b6040516020818303038152906040527f41304fac000000000000000000000000000000000000000000000000000000007bffffffffffffffffffffffffffffffffffffffffffffffffffffffff19166020820180517bffffffffffffffffffffffffffffffffffffffffffffffffffffffff83818316178352505050506200010660201b60201c565b50565b60008151905060006a636f6e736f6c652e6c6f679050602083016000808483855afa5050505050565b60006200013c8262000194565b6200014881856200019f565b93506200015a818560208601620001b0565b6200016581620001e6565b840191505092915050565b600060208201905081810360008301526200018c81846200012f565b905092915050565b600081519050919050565b600082825260208201905092915050565b60005b83811015620001d0578082015181840152602081019050620001b3565b83811115620001e0576000848401525b50505050565b6000601f19601f8301169050919050565b6110d480620002076000396000f3fe608060405234801561001057600080fd5b50600436106100625760003560e01c806305c766d11461006757806353f5e38014610083578063e48bac70146100a1578063e855e8f4146100d1578063eb848785146100db578063f4bddfeb146100f9575b600080fd5b610081600480360381019061007c9190610a90565b610103565b005b61008b610262565b6040516100989190610c67565b60405180910390f35b6100bb60048036038101906100b69190610a67565b6103b3565b6040516100c89190610c89565b60405180910390f35b6100d96103d3565b005b6100e361051c565b6040516100f09190610d6b565b60405180910390f35b610101610567565b005b6101436040518060400160405280600781526020017f25732073617973000000000000000000000000000000000000000000000000008152503383610747565b600260405180606001604052803373ffffffffffffffffffffffffffffffffffffffff16815260200183815260200142815250908060018154018082558091505060019003906000526020600020906003020160009091909190915060008201518160000160006101000a81548173ffffffffffffffffffffffffffffffffffffffff021916908373ffffffffffffffffffffffffffffffffffffffff1602179055506020820151816001019080519060200190610202929190610947565b506040820151816002015550503373ffffffffffffffffffffffffffffffffffffffff167ff59a0490c64dc678d71fac4419d1912f50319248245f00362d2817a95abf421f4283604051610257929190610d86565b60405180910390a250565b60606002805480602002602001604051908101604052809291908181526020016000905b828210156103aa57838290600052602060002090600302016040518060600160405290816000820160009054906101000a900473ffffffffffffffffffffffffffffffffffffffff1673ffffffffffffffffffffffffffffffffffffffff1673ffffffffffffffffffffffffffffffffffffffff16815260200160018201805461030f90610f86565b80601f016020809104026020016040519081016040528092919081815260200182805461033b90610f86565b80156103885780601f1061035d57610100808354040283529160200191610388565b820191906000526020600020905b81548152906001019060200180831161036b57829003601f168201915b5050505050815260200160028201548152505081526020019060010190610286565b50505050905090565b60016020528060005260406000206000915054906101000a900460ff1681565b600160003373ffffffffffffffffffffffffffffffffffffffff1673ffffffffffffffffffffffffffffffffffffffff16815260200190815260200160002060009054906101000a900460ff16156104da5760016000808282546104379190610ec8565b925050819055506000600160003373ffffffffffffffffffffffffffffffffffffffff1673ffffffffffffffffffffffffffffffffffffffff16815260200190815260200160002060006101000a81548160ff0219169083151502179055506104d56040518060400160405280601a81526020017f2573206973206e6f206c6f6e67657220696e7465726573746564000000000000815250336107e6565b61051a565b6105196040518060400160405280601c81526020017f257320697320616c7265616479206e6f7420696e746572657374656400000000815250336107e6565b5b565b600061055f6040518060400160405280601e81526020017f5468657265206172652025642070656f706c6520696e74657265737465640000815250600054610882565b600054905090565b600160003373ffffffffffffffffffffffffffffffffffffffff1673ffffffffffffffffffffffffffffffffffffffff16815260200190815260200160002060009054906101000a900460ff1661066c5760016000808282546105ca9190610e72565b9250508190555060018060003373ffffffffffffffffffffffffffffffffffffffff1673ffffffffffffffffffffffffffffffffffffffff16815260200190815260200160002060006101000a81548160ff0219169083151502179055506106676040518060400160405280601481526020017f2573206973206e6f7720696e7465726573746564000000000000000000000000815250336107e6565b6106ac565b6106ab6040518060400160405280601881526020017f257320697320616c726561647920696e74657265737465640000000000000000815250336107e6565b5b565b610744816040516024016106c29190610ca4565b6040516020818303038152906040527f41304fac000000000000000000000000000000000000000000000000000000007bffffffffffffffffffffffffffffffffffffffffffffffffffffffff19166020820180517bffffffffffffffffffffffffffffffffffffffffffffffffffffffff838183161783525050505061091e565b50565b6107e183838360405160240161075f93929190610cf6565b6040516020818303038152906040527fe0e9ad4f000000000000000000000000000000000000000000000000000000007bffffffffffffffffffffffffffffffffffffffffffffffffffffffff19166020820180517bffffffffffffffffffffffffffffffffffffffffffffffffffffffff838183161783525050505061091e565b505050565b61087e82826040516024016107fc929190610cc6565b6040516020818303038152906040527f319af333000000000000000000000000000000000000000000000000000000007bffffffffffffffffffffffffffffffffffffffffffffffffffffffff19166020820180517bffffffffffffffffffffffffffffffffffffffffffffffffffffffff838183161783525050505061091e565b5050565b61091a8282604051602401610898929190610d3b565b6040516020818303038152906040527f9710a9d0000000000000000000000000000000000000000000000000000000007bffffffffffffffffffffffffffffffffffffffffffffffffffffffff19166020820180517bffffffffffffffffffffffffffffffffffffffffffffffffffffffff838183161783525050505061091e565b5050565b60008151905060006a636f6e736f6c652e6c6f679050602083016000808483855afa5050505050565b82805461095390610f86565b90600052602060002090601f01602090048101928261097557600085556109bc565b82601f1061098e57805160ff19168380011785556109bc565b828001600101855582156109bc579182015b828111156109bb5782518255916020019190600101906109a0565b5b5090506109c991906109cd565b5090565b5b808211156109e65760008160009055506001016109ce565b5090565b60006109fd6109f884610ddb565b610db6565b905082815260208101848484011115610a1557600080fd5b610a20848285610f44565b509392505050565b600081359050610a3781611087565b92915050565b600082601f830112610a4e57600080fd5b8135610a5e8482602086016109ea565b91505092915050565b600060208284031215610a7957600080fd5b6000610a8784828501610a28565b91505092915050565b600060208284031215610aa257600080fd5b600082013567ffffffffffffffff811115610abc57600080fd5b610ac884828501610a3d565b91505092915050565b6000610add8383610bf9565b905092915050565b610aee81610efc565b82525050565b610afd81610efc565b82525050565b6000610b0e82610e1c565b610b188185610e3f565b935083602082028501610b2a85610e0c565b8060005b85811015610b665784840389528151610b478582610ad1565b9450610b5283610e32565b925060208a01995050600181019050610b2e565b50829750879550505050505092915050565b610b8181610f0e565b82525050565b6000610b9282610e27565b610b9c8185610e50565b9350610bac818560208601610f53565b610bb581611076565b840191505092915050565b6000610bcb82610e27565b610bd58185610e61565b9350610be5818560208601610f53565b610bee81611076565b840191505092915050565b6000606083016000830151610c116000860182610ae5565b5060208301518482036020860152610c298282610b87565b9150506040830151610c3e6040860182610c49565b508091505092915050565b610c5281610f3a565b82525050565b610c6181610f3a565b82525050565b60006020820190508181036000830152610c818184610b03565b905092915050565b6000602082019050610c9e6000830184610b78565b92915050565b60006020820190508181036000830152610cbe8184610bc0565b905092915050565b60006040820190508181036000830152610ce08185610bc0565b9050610cef6020830184610af4565b9392505050565b60006060820190508181036000830152610d108186610bc0565b9050610d1f6020830185610af4565b8181036040830152610d318184610bc0565b9050949350505050565b60006040820190508181036000830152610d558185610bc0565b9050610d646020830184610c58565b9392505050565b6000602082019050610d806000830184610c58565b92915050565b6000604082019050610d9b6000830185610c58565b8181036020830152610dad8184610bc0565b90509392505050565b6000610dc0610dd1565b9050610dcc8282610fb8565b919050565b6000604051905090565b600067ffffffffffffffff821115610df657610df5611047565b5b610dff82611076565b9050602081019050919050565b6000819050602082019050919050565b600081519050919050565b600081519050919050565b6000602082019050919050565b600082825260208201905092915050565b600082825260208201905092915050565b600082825260208201905092915050565b6000610e7d82610f3a565b9150610e8883610f3a565b9250827fffffffffffffffffffffffffffffffffffffffffffffffffffffffffffffffff03821115610ebd57610ebc610fe9565b5b828201905092915050565b6000610ed382610f3a565b9150610ede83610f3a565b925082821015610ef157610ef0610fe9565b5b828203905092915050565b6000610f0782610f1a565b9050919050565b60008115159050919050565b600073ffffffffffffffffffffffffffffffffffffffff82169050919050565b6000819050919050565b82818337600083830152505050565b60005b83811015610f71578082015181840152602081019050610f56565b83811115610f80576000848401525b50505050565b60006002820490506001821680610f9e57607f821691505b60208210811415610fb257610fb1611018565b5b50919050565b610fc182611076565b810181811067ffffffffffffffff82111715610fe057610fdf611047565b5b80604052505050565b7f4e487b7100000000000000000000000000000000000000000000000000000000600052601160045260246000fd5b7f4e487b7100000000000000000000000000000000000000000000000000000000600052602260045260246000fd5b7f4e487b7100000000000000000000000000000000000000000000000000000000600052604160045260246000fd5b6000601f19601f8301169050919050565b61109081610efc565b811461109b57600080fd5b5056fea26469706673582212208aa8008e90efafc7b904ffb3855185578848076b0e7474981047d9df3f4bfa1a64736f6c63430008040033",
  "linkReferences": {},
  "deployedLinkReferences": {}
}